{
  "_format": "hh-sol-artifact-1",
  "contractName": "ExtendedNFT",
  "sourceName": "contracts/ArtefinNFT.sol",
  "abi": [
    {
      "anonymous": false,
      "inputs": [
        {
          "indexed": true,
          "internalType": "uint256",
          "name": "tokenID",
          "type": "uint256"
        },
        {
          "indexed": true,
          "internalType": "uint256",
          "name": "bidAmount",
          "type": "uint256"
        },
        {
          "indexed": false,
          "internalType": "bytes",
          "name": "bidData",
          "type": "bytes"
        }
      ],
      "name": "NewBid",
      "type": "event"
    },
    {
      "anonymous": false,
      "inputs": [
        {
          "indexed": true,
          "internalType": "uint256",
          "name": "tokenID",
          "type": "uint256"
        },
        {
          "indexed": true,
          "internalType": "address",
          "name": "new_owner",
          "type": "address"
        },
        {
          "indexed": true,
          "internalType": "address",
          "name": "previous_owner",
          "type": "address"
        },
        {
          "indexed": false,
          "internalType": "uint256",
          "name": "priceInWEI",
          "type": "uint256"
        }
      ],
      "name": "TokenTrade",
      "type": "event"
    },
    {
      "anonymous": false,
      "inputs": [
        {
          "indexed": true,
          "internalType": "address",
          "name": "from",
          "type": "address"
        },
        {
          "indexed": true,
          "internalType": "address",
          "name": "to",
          "type": "address"
        },
        {
          "indexed": true,
          "internalType": "uint256",
          "name": "tokenId",
          "type": "uint256"
        }
      ],
      "name": "Transfer",
      "type": "event"
    },
    {
      "anonymous": false,
      "inputs": [
        {
          "indexed": false,
          "internalType": "bytes",
          "name": "data",
          "type": "bytes"
        }
      ],
      "name": "TransferData",
      "type": "event"
    },
    {
      "inputs": [
        {
          "internalType": "address",
          "name": "owner",
          "type": "address"
        }
      ],
      "name": "balanceOf",
      "outputs": [
        {
          "internalType": "uint256",
          "name": "",
          "type": "uint256"
        }
      ],
      "stateMutability": "view",
      "type": "function"
    },
    {
      "inputs": [],
      "name": "bidLock",
      "outputs": [
        {
          "internalType": "uint256",
          "name": "",
          "type": "uint256"
        }
      ],
      "stateMutability": "view",
      "type": "function"
    },
    {
      "inputs": [
        {
          "internalType": "uint256",
          "name": "_tokenId",
          "type": "uint256"
        }
      ],
      "name": "bidOf",
      "outputs": [
        {
          "internalType": "uint256",
          "name": "price",
          "type": "uint256"
        },
        {
          "internalType": "address payable",
          "name": "bidder",
          "type": "address"
        },
        {
          "internalType": "uint256",
          "name": "timestamp",
          "type": "uint256"
        }
      ],
      "stateMutability": "view",
      "type": "function"
    },
    {
      "inputs": [
        {
          "internalType": "uint32",
          "name": "",
          "type": "uint32"
        }
      ],
      "name": "feeLevels",
      "outputs": [
        {
          "internalType": "address payable",
          "name": "feeReceiver",
          "type": "address"
        },
        {
          "internalType": "uint256",
          "name": "feePercentage",
          "type": "uint256"
        }
      ],
      "stateMutability": "view",
      "type": "function"
    },
    {
      "inputs": [
        {
          "internalType": "uint256",
          "name": "_tokenId",
          "type": "uint256"
        }
      ],
      "name": "getTokenProperties",
      "outputs": [
        {
          "components": [
            {
              "internalType": "string[]",
              "name": "properties",
              "type": "string[]"
            }
          ],
          "internalType": "struct ICallistoNFT.Properties",
          "name": "",
          "type": "tuple"
        }
      ],
      "stateMutability": "view",
      "type": "function"
    },
    {
      "inputs": [
        {
          "internalType": "uint256",
          "name": "_tokenId",
          "type": "uint256"
        },
        {
          "internalType": "uint256",
          "name": "_propertyId",
          "type": "uint256"
        }
      ],
      "name": "getTokenProperty",
      "outputs": [
        {
          "internalType": "string",
          "name": "",
          "type": "string"
        }
      ],
      "stateMutability": "view",
      "type": "function"
    },
    {
      "inputs": [
        {
          "internalType": "uint256",
          "name": "_tokenId",
          "type": "uint256"
        }
      ],
      "name": "getUserContent",
      "outputs": [
        {
          "internalType": "string",
          "name": "_content",
          "type": "string"
        }
      ],
      "stateMutability": "view",
      "type": "function"
    },
    {
      "inputs": [],
      "name": "name",
      "outputs": [
        {
          "internalType": "string",
          "name": "",
          "type": "string"
        }
      ],
      "stateMutability": "view",
      "type": "function"
    },
    {
      "inputs": [],
      "name": "next_mint_id",
      "outputs": [
        {
          "internalType": "uint256",
          "name": "",
          "type": "uint256"
        }
      ],
      "stateMutability": "view",
      "type": "function"
    },
    {
      "inputs": [
        {
          "internalType": "uint256",
          "name": "tokenId",
          "type": "uint256"
        }
      ],
      "name": "ownerOf",
      "outputs": [
        {
          "internalType": "address",
          "name": "",
          "type": "address"
        }
      ],
      "stateMutability": "view",
      "type": "function"
    },
    {
      "inputs": [
        {
          "internalType": "uint256",
          "name": "_tokenId",
          "type": "uint256"
        }
      ],
      "name": "priceOf",
      "outputs": [
        {
          "internalType": "uint256",
          "name": "",
          "type": "uint256"
        }
      ],
      "stateMutability": "view",
      "type": "function"
    },
    {
      "inputs": [
        {
          "internalType": "uint256",
          "name": "_tokenId",
          "type": "uint256"
        },
        {
          "internalType": "bytes",
          "name": "_data",
          "type": "bytes"
        }
      ],
      "name": "setBid",
      "outputs": [],
      "stateMutability": "payable",
      "type": "function"
    },
    {
      "inputs": [
        {
          "internalType": "uint256",
          "name": "_tokenId",
          "type": "uint256"
        },
        {
          "internalType": "uint256",
          "name": "_amountInWEI",
          "type": "uint256"
        },
        {
          "internalType": "bytes",
          "name": "_data",
          "type": "bytes"
        }
      ],
      "name": "setPrice",
      "outputs": [],
      "stateMutability": "nonpayable",
      "type": "function"
    },
    {
      "inputs": [
        {
          "internalType": "uint256",
          "name": "_tokenId",
          "type": "uint256"
        },
        {
          "internalType": "string",
          "name": "_content",
          "type": "string"
        }
      ],
      "name": "setUserContent",
      "outputs": [
        {
          "internalType": "bool",
          "name": "success",
          "type": "bool"
        }
      ],
      "stateMutability": "nonpayable",
      "type": "function"
    },
    {
      "inputs": [
        {
          "internalType": "address",
          "name": "_to",
          "type": "address"
        },
        {
          "internalType": "uint256",
          "name": "_tokenId",
          "type": "uint256"
        }
      ],
      "name": "silentTransfer",
      "outputs": [
        {
          "internalType": "bool",
          "name": "",
          "type": "bool"
        }
      ],
      "stateMutability": "nonpayable",
      "type": "function"
    },
    {
      "inputs": [],
      "name": "standard",
      "outputs": [
        {
          "internalType": "string",
          "name": "",
          "type": "string"
        }
      ],
      "stateMutability": "view",
      "type": "function"
    },
    {
      "inputs": [],
      "name": "symbol",
      "outputs": [
        {
          "internalType": "string",
          "name": "",
          "type": "string"
        }
      ],
      "stateMutability": "view",
      "type": "function"
    },
    {
      "inputs": [
        {
          "internalType": "address",
          "name": "_to",
          "type": "address"
        },
        {
          "internalType": "uint256",
          "name": "_tokenId",
          "type": "uint256"
        },
        {
          "internalType": "bytes",
          "name": "_data",
          "type": "bytes"
        }
      ],
      "name": "transfer",
      "outputs": [
        {
          "internalType": "bool",
          "name": "",
          "type": "bool"
        }
      ],
      "stateMutability": "nonpayable",
      "type": "function"
    },
    {
      "inputs": [
        {
          "internalType": "uint256",
          "name": "_tokenId",
          "type": "uint256"
        }
      ],
      "name": "withdrawBid",
      "outputs": [
        {
          "internalType": "bool",
          "name": "",
          "type": "bool"
        }
      ],
      "stateMutability": "nonpayable",
      "type": "function"
    }
  ],
  "bytecode": "0x60806040526201518060035534801561001757600080fd5b506001600055611bb68061002c6000396000f3fe6080604052600436106101445760003560e01c806370a08231116100c057806395d89b4111610074578063be45fd6211610059578063be45fd62146103ff578063c98e0c3c1461041f578063e29fb0361461043f57600080fd5b806395d89b41146103ca578063b9186d7d146103df57600080fd5b806374c29ce3116100a557806374c29ce3146103355780637ab56e521461039457806391100695146103b457600080fd5b806370a08231146102f457806373baa6511461032257600080fd5b80633d8073f1116101175780635a3b7e42116100fc5780635a3b7e42146102335780636352211e14610279578063649ccc14146102b157600080fd5b80633d8073f1146101e45780634edea1111461020657600080fd5b806302ff368a1461014957806306fdde031461017f5780630eaaf4c8146101945780632a6d3f44146101c4575b600080fd5b34801561015557600080fd5b50610169610164366004611619565b610455565b6040516101769190611678565b60405180910390f35b34801561018b57600080fd5b5061016961050f565b3480156101a057600080fd5b506101b46101af366004611619565b6105a1565b6040519015158152602001610176565b3480156101d057600080fd5b506101b46101df3660046116db565b61074d565b3480156101f057600080fd5b506102046101ff366004611727565b610821565b005b34801561021257600080fd5b50610226610221366004611619565b610a46565b604051610176919061177a565b34801561023f57600080fd5b5060408051808201909152600b81527f43616c6c6973746f4e46540000000000000000000000000000000000000000006020820152610169565b34801561028557600080fd5b50610299610294366004611619565b610b3b565b6040516001600160a01b039091168152602001610176565b3480156102bd57600080fd5b506102d16102cc366004611619565b610bb5565b604080519384526001600160a01b03909216602084015290820152606001610176565b34801561030057600080fd5b5061031461030f366004611802565b610c5c565b604051908152602001610176565b6102046103303660046116db565b610cf6565b34801561034157600080fd5b5061037561035036600461181d565b600260205260009081526040902080546001909101546001600160a01b039091169082565b604080516001600160a01b039093168352602083019190915201610176565b3480156103a057600080fd5b506101696103af366004611843565b611006565b3480156103c057600080fd5b5061031460035481565b3480156103d657600080fd5b506101696110c5565b3480156103eb57600080fd5b506103146103fa366004611619565b6110d4565b34801561040b57600080fd5b506101b461041a366004611865565b61115c565b34801561042b57600080fd5b506101b461043a3660046118a7565b6111af565b34801561044b57600080fd5b5061031460075481565b6000818152600160205260408120805460609290610475576104756118d1565b90600052602060002001805461048a906118e7565b80601f01602080910402602001604051908101604052809291908181526020018280546104b6906118e7565b80156105035780601f106104d857610100808354040283529160200191610503565b820191906000526020600020905b8154815290600101906020018083116104e657829003601f168201915b50505050509050919050565b60606008805461051e906118e7565b80601f016020809104026020016040519081016040528092919081815260200182805461054a906118e7565b80156105975780601f1061056c57610100808354040283529160200191610597565b820191906000526020600020905b81548152906001019060200180831161057a57829003601f168201915b5050505050905090565b60006002600054036105fa5760405162461bcd60e51b815260206004820152601f60248201527f5265656e7472616e637947756172643a207265656e7472616e742063616c6c0060448201526064015b60405180910390fd5b60026000908155808061060c85610bb5565b91945092509050336001600160a01b038316146106915760405162461bcd60e51b815260206004820152602260248201527f43616e206e6f7420776974686472617720736f6d656f6e6520656c736573206260448201527f696400000000000000000000000000000000000000000000000000000000000060648201526084016105f1565b60035461069e9082611937565b42116106ec5760405162461bcd60e51b815260206004820152601260248201527f4269642069732074696d652d6c6f636b6564000000000000000000000000000060448201526064016105f1565b6040516000906001600160a01b0384169085156108fc0290869084818181858888f150505060009788525050600560205250506040842080546001600160a01b03191681556001808201869055600290910185905593849055509192915050565b600061075884610b3b565b6001600160a01b0316336001600160a01b0316146107de5760405162461bcd60e51b815260206004820152602660248201527f4e46543a206f6e6c79206f776e65722063616e206368616e6765204e4654206360448201527f6f6e74656e74000000000000000000000000000000000000000000000000000060648201526084016105f1565b6000848152600160205260408120805485928592916107ff576107ff6118d1565b9060005260206000200191826108169291906119ae565b506001949350505050565b8382826002600054036108765760405162461bcd60e51b815260206004820152601f60248201527f5265656e7472616e637947756172643a207265656e7472616e742063616c6c0060448201526064016105f1565b60026000553361088588610b3b565b6001600160a01b0316146109015760405162461bcd60e51b815260206004820152602c60248201527f53657474696e672061736b73206973206f6e6c7920616c6c6f77656420666f7260448201527f206f776e6564204e46547321000000000000000000000000000000000000000060648201526084016105f1565b6000878152600460205260408120879055600181558061092085610bb5565b50915091506000610930866110d4565b118015610945575081610942866110d4565b11155b15610a3b5760006109568387611340565b6109609084611a6f565b905061096b86610b3b565b6001600160a01b0316826001600160a01b0316877fc9b9afd9684b23c6b22a41016c08e8954ac118220c0a52f00b8774c46580e9a3846040516109b091815260200190565b60405180910390a460006109c387610b3b565b6001600160a01b03166108fc839081150290604051600060405180830381858888f160008c815260056020908152604080832080546001600160a01b03191681556001810184905560020183905560049091528120559450610a389350610a2f92508a9150610b3b9050565b848989896113c7565b50505b505050505050505050565b604080516020808201835260608252600084815260018252838120845181548085028201870187529381018481529495909491938593859285015b82821015610b2d578382906000526020600020018054610aa0906118e7565b80601f0160208091040260200160405190810160405280929190818152602001828054610acc906118e7565b8015610b195780601f10610aee57610100808354040283529160200191610b19565b820191906000526020600020905b815481529060010190602001808311610afc57829003601f168201915b505050505081526020019060010190610a81565b505050915250909392505050565b6000818152600a60205260408120546001600160a01b031680610baf5760405162461bcd60e51b815260206004820152602660248201527f4e46543a206f776e657220717565727920666f72206e6f6e6578697374656e74604482015265103a37b5b2b760d11b60648201526084016105f1565b92915050565b6000818152600a6020526040812054819081906001600160a01b031680610c2d5760405162461bcd60e51b815260206004820152602660248201527f4e46543a206f776e657220717565727920666f72206e6f6e6578697374656e74604482015265103a37b5b2b760d11b60648201526084016105f1565b5050506000918252506005602052604090206001810154815460029092015490926001600160a01b0390921691565b60006001600160a01b038216610cda5760405162461bcd60e51b815260206004820152602760248201527f4e46543a2062616c616e636520717565727920666f7220746865207a65726f2060448201527f616464726573730000000000000000000000000000000000000000000000000060648201526084016105f1565b506001600160a01b03166000908152600b602052604090205490565b828282600260005403610d4b5760405162461bcd60e51b815260206004820152601f60248201527f5265656e7472616e637947756172643a207265656e7472616e742063616c6c0060448201526064016105f1565b6002600090815580610d5c88610bb5565b5091509150813411610dd55760405162461bcd60e51b8152602060048201526024808201527f4e657720626964206d7573742065786365656420746865206578697374696e6760448201527f206f6e650000000000000000000000000000000000000000000000000000000060648201526084016105f1565b60008215610e06576040516000906001600160a01b0384169085156108fc0290869084818181858888f15050505050505b34610e108a6110d4565b1015610e2657610e1f896110d4565b9050610e29565b50345b600089815260056020526040908190206001810183905580546001600160a01b03191633178155426002909101555181908a907f223d0d5db4846341da7a5cc902b1a7c597e63b6c73b1c6267dc931d290c7affb90610e8b908c908c90611aab565b60405180910390a334610e9d8a6110d4565b1015610ed5576000336108fc610eb28c6110d4565b610ebc9034611a6f565b6040518115909202916000818181858888f15050505050505b505060016000908155905080610eea85610bb5565b50915091506000610efa866110d4565b118015610f0f575081610f0c866110d4565b11155b15610ffc576000610f208387611340565b610f2a9084611a6f565b9050610f3586610b3b565b6001600160a01b0316826001600160a01b0316877fc9b9afd9684b23c6b22a41016c08e8954ac118220c0a52f00b8774c46580e9a384604051610f7a91815260200190565b60405180910390a46000610f8d87610b3b565b6001600160a01b03166108fc839081150290604051600060405180830381858888f160008c815260056020908152604080832080546001600160a01b03191681556001810184905560020183905560049091528120559450610ff99350610a2f92508a9150610b3b9050565b50505b5050505050505050565b60008281526001602052604090208054606091908390811061102a5761102a6118d1565b90600052602060002001805461103f906118e7565b80601f016020809104026020016040519081016040528092919081815260200182805461106b906118e7565b80156110b85780601f1061108d576101008083540402835291602001916110b8565b820191906000526020600020905b81548152906001019060200180831161109b57829003601f168201915b5050505050905092915050565b60606009805461051e906118e7565b6000818152600a60205260408120546001600160a01b0316806111485760405162461bcd60e51b815260206004820152602660248201527f4e46543a206f776e657220717565727920666f72206e6f6e6578697374656e74604482015265103a37b5b2b760d11b60648201526084016105f1565b505060009081526004602052604090205490565b600061116b33868686866113c7565b7f3ba9136826ac751de05d770d8d34fa4440ada49a5fb0e9aa1678aece66dad976838360405161119c929190611aab565b60405180910390a1506001949350505050565b6000336111bb83610b3b565b6001600160a01b0316146112205760405162461bcd60e51b815260206004820152602660248201527f4e46543a207472616e73666572206f6620746f6b656e2074686174206973206e60448201526537ba1037bbb760d11b60648201526084016105f1565b6001600160a01b0383166112805760405162461bcd60e51b815260206004820152602160248201527f4e46543a207472616e7366657220746f20746865207a65726f206164647265736044820152607360f81b60648201526084016105f1565b600082815260046020526040812055336000908152600b602052604081208054600192906112af908490611a6f565b90915550506001600160a01b0383166000908152600b602052604081208054600192906112dd908490611937565b90915550506000828152600a602052604080822080546001600160a01b0319166001600160a01b0387169081179091559051849233917fddf252ad1be2c89b69c2b068fc378daa952ba7f163c4a11628f55a4df523b3ef9190a450600192915050565b60008181526006602090815260408083205463ffffffff168084526002909252822080546001909101546001600160a01b039091169083620186a06113858389611ac7565b61138f9190611ade565b90506000836001600160a01b03166108fc839081150290604051600060405180830381858888f150949b9a5050505050505050505050565b846001600160a01b03166113da84610b3b565b6001600160a01b03161461143f5760405162461bcd60e51b815260206004820152602660248201527f4e46543a207472616e73666572206f6620746f6b656e2074686174206973206e60448201526537ba1037bbb760d11b60648201526084016105f1565b6001600160a01b03841661149f5760405162461bcd60e51b815260206004820152602160248201527f4e46543a207472616e7366657220746f20746865207a65726f206164647265736044820152607360f81b60648201526084016105f1565b6000838152600460205260408120556001600160a01b0385166000908152600b602052604081208054600192906114d7908490611a6f565b90915550506001600160a01b0384166000908152600b60205260408120805460019290611505908490611937565b90915550506000838152600a6020526040902080546001600160a01b0319166001600160a01b0386169081179091553b156115cc576040517f150b7a020000000000000000000000000000000000000000000000000000000081526001600160a01b0385169063150b7a02906115879033908990889088908890600401611b00565b6020604051808303816000875af11580156115a6573d6000803e3d6000fd5b505050506040513d601f19601f820116820180604052508101906115ca9190611b3e565b505b82846001600160a01b0316866001600160a01b03167fddf252ad1be2c89b69c2b068fc378daa952ba7f163c4a11628f55a4df523b3ef60405160405180910390a45050505050565b505050565b60006020828403121561162b57600080fd5b5035919050565b6000815180845260005b818110156116585760208185018101518683018201520161163c565b506000602082860101526020601f19601f83011685010191505092915050565b60208152600061168b6020830184611632565b9392505050565b60008083601f8401126116a457600080fd5b50813567ffffffffffffffff8111156116bc57600080fd5b6020830191508360208285010111156116d457600080fd5b9250929050565b6000806000604084860312156116f057600080fd5b83359250602084013567ffffffffffffffff81111561170e57600080fd5b61171a86828701611692565b9497909650939450505050565b6000806000806060858703121561173d57600080fd5b8435935060208501359250604085013567ffffffffffffffff81111561176257600080fd5b61176e87828801611692565b95989497509550505050565b60006020808352604083018451828386015281815180845260608701915060608160051b8801019350848301925060005b818110156117d957605f198886030183526117c7858551611632565b945092850192918501916001016117ab565b5092979650505050505050565b80356001600160a01b03811681146117fd57600080fd5b919050565b60006020828403121561181457600080fd5b61168b826117e6565b60006020828403121561182f57600080fd5b813563ffffffff8116811461168b57600080fd5b6000806040838503121561185657600080fd5b50508035926020909101359150565b6000806000806060858703121561187b57600080fd5b611884856117e6565b935060208501359250604085013567ffffffffffffffff81111561176257600080fd5b600080604083850312156118ba57600080fd5b6118c3836117e6565b946020939093013593505050565b634e487b7160e01b600052603260045260246000fd5b600181811c908216806118fb57607f821691505b60208210810361191b57634e487b7160e01b600052602260045260246000fd5b50919050565b634e487b7160e01b600052601160045260246000fd5b80820180821115610baf57610baf611921565b634e487b7160e01b600052604160045260246000fd5b601f82111561161457600081815260208120601f850160051c810160208610156119875750805b601f850160051c820191505b818110156119a657828155600101611993565b505050505050565b67ffffffffffffffff8311156119c6576119c661194a565b6119da836119d483546118e7565b83611960565b6000601f841160018114611a0e57600085156119f65750838201355b600019600387901b1c1916600186901b178355611a68565b600083815260209020601f19861690835b82811015611a3f5786850135825560209485019460019092019101611a1f565b5086821015611a5c5760001960f88860031b161c19848701351681555b505060018560011b0183555b5050505050565b81810381811115610baf57610baf611921565b81835281816020850137506000828201602090810191909152601f909101601f19169091010190565b602081526000611abf602083018486611a82565b949350505050565b8082028115828204841417610baf57610baf611921565b600082611afb57634e487b7160e01b600052601260045260246000fd5b500490565b60006001600160a01b03808816835280871660208401525084604083015260806060830152611b33608083018486611a82565b979650505050505050565b600060208284031215611b5057600080fd5b81517fffffffff000000000000000000000000000000000000000000000000000000008116811461168b57600080fdfea2646970667358221220983be6913034bceeb6f046911ecc39ed4e1f9e9fbfcb02f86e675a0d11ede25864736f6c63430008110033",
  "linkReferences": {},
  "deployedLinkReferences": {}
}