{
  "_format": "hh-sol-artifact-1",
  "contractName": "NFTUpgradeableProxy",
  "sourceName": "contracts/Proxy.sol",
  "abi": [
    {
      "inputs": [
        {
          "internalType": "address",
          "name": "logic",
          "type": "address"
        },
        {
          "internalType": "address",
          "name": "admin",
          "type": "address"
        },
        {
          "internalType": "bytes",
          "name": "data",
          "type": "bytes"
        }
      ],
      "stateMutability": "nonpayable",
      "type": "constructor"
    },
    {
      "anonymous": false,
      "inputs": [
        {
          "indexed": false,
          "internalType": "address",
          "name": "previousAdmin",
          "type": "address"
        },
        {
          "indexed": false,
          "internalType": "address",
          "name": "newAdmin",
          "type": "address"
        }
      ],
      "name": "AdminChanged",
      "type": "event"
    },
    {
      "anonymous": false,
      "inputs": [
        {
          "indexed": true,
          "internalType": "address",
          "name": "implementation",
          "type": "address"
        }
      ],
      "name": "Upgraded",
      "type": "event"
    },
    {
      "stateMutability": "payable",
      "type": "fallback"
    },
    {
      "inputs": [],
      "name": "admin",
      "outputs": [
        {
          "internalType": "address",
          "name": "admin_",
          "type": "address"
        }
      ],
      "stateMutability": "view",
      "type": "function"
    },
    {
      "inputs": [
        {
          "internalType": "address",
          "name": "newAdmin",
          "type": "address"
        }
      ],
      "name": "changeAdmin",
      "outputs": [],
      "stateMutability": "nonpayable",
      "type": "function"
    },
    {
      "inputs": [],
      "name": "implementation",
      "outputs": [
        {
          "internalType": "address",
          "name": "implementation_",
          "type": "address"
        }
      ],
      "stateMutability": "view",
      "type": "function"
    },
    {
      "inputs": [
        {
          "internalType": "address",
          "name": "newImplementation",
          "type": "address"
        }
      ],
      "name": "upgradeTo",
      "outputs": [],
      "stateMutability": "nonpayable",
      "type": "function"
    },
    {
      "stateMutability": "payable",
      "type": "receive"
    }
  ],
  "bytecode": "0x608060405234801561001057600080fd5b5060405161082c38038061082c83398101604081905261002f91610257565b828282828161005f60017f360894a13ba1a3210667c828492db98dca3e2076cc3735a920a3ca505d382bbd610327565b60008051602061080c8339815191521461007b5761007b61034e565b61008482610160565b8051156100f5576000826001600160a01b0316826040516100a59190610364565b600060405180830381855af49150503d80600081146100e0576040519150601f19603f3d011682016040523d82523d6000602084013e6100e5565b606091505b50509050806100f357600080fd5b505b50610123905060017fb53127684a568b3173ae13b9f8a6016e243e63b6e8ee1178d6a717850b5d6104610327565b6000805160206107ec8339815191521461013f5761013f61034e565b610155826000805160206107ec83398151915255565b505050505050610380565b610173816101fb60201b6102f51760201c565b6101e95760405162461bcd60e51b815260206004820152603660248201527f5570677261646561626c6550726f78793a206e657720696d706c656d656e746160448201527f74696f6e206973206e6f74206120636f6e747261637400000000000000000000606482015260840160405180910390fd5b60008051602061080c83398151915255565b3b151590565b80516001600160a01b038116811461021857600080fd5b919050565b634e487b7160e01b600052604160045260246000fd5b60005b8381101561024e578181015183820152602001610236565b50506000910152565b60008060006060848603121561026c57600080fd5b61027584610201565b925061028360208501610201565b60408501519092506001600160401b03808211156102a057600080fd5b818601915086601f8301126102b457600080fd5b8151818111156102c6576102c661021d565b604051601f8201601f19908116603f011681019083821181831017156102ee576102ee61021d565b8160405282815289602084870101111561030757600080fd5b610318836020830160208801610233565b80955050505050509250925092565b8181038181111561034857634e487b7160e01b600052601160045260246000fd5b92915050565b634e487b7160e01b600052600160045260246000fd5b60008251610376818460208701610233565b9190910192915050565b61045d8061038f6000396000f3fe6080604052600436106100435760003560e01c80633659cfe61461005a5780635c60da1b1461007a5780638f283970146100ab578063f851a440146100cb57610052565b36610052576100506100e0565b005b6100506100e0565b34801561006657600080fd5b506100506100753660046103f7565b610112565b34801561008657600080fd5b5061008f610157565b6040516001600160a01b03909116815260200160405180910390f35b3480156100b757600080fd5b506100506100c63660046103f7565b610186565b3480156100d757600080fd5b5061008f6102cb565b61011061010b7f360894a13ba1a3210667c828492db98dca3e2076cc3735a920a3ca505d382bbc5490565b6102fb565b565b7fb53127684a568b3173ae13b9f8a6016e243e63b6e8ee1178d6a717850b5d6103546001600160a01b0316330361014f5761014c8161031f565b50565b61014c6100e0565b60006101817f360894a13ba1a3210667c828492db98dca3e2076cc3735a920a3ca505d382bbc5490565b905090565b7fb53127684a568b3173ae13b9f8a6016e243e63b6e8ee1178d6a717850b5d6103546001600160a01b0316330361014f576001600160a01b0381166102385760405162461bcd60e51b815260206004820152603a60248201527f5472616e73706172656e745570677261646561626c6550726f78793a206e657760448201527f2061646d696e20697320746865207a65726f206164647265737300000000000060648201526084015b60405180910390fd5b7f7e644d79422f17c01e4894b5f4f588d331ebfa28653d42ae832dc59e38c9798f6102817fb53127684a568b3173ae13b9f8a6016e243e63b6e8ee1178d6a717850b5d61035490565b604080516001600160a01b03928316815291841660208301520160405180910390a161014c817fb53127684a568b3173ae13b9f8a6016e243e63b6e8ee1178d6a717850b5d610355565b60006101817fb53127684a568b3173ae13b9f8a6016e243e63b6e8ee1178d6a717850b5d61035490565b3b151590565b3660008037600080366000845af43d6000803e80801561031a573d6000f35b3d6000fd5b6103288161035f565b6040516001600160a01b038216907fbc7cd75a20ee27fd9adebab32041f755214dbc6bffa90cc0225b39da2e5c2d3b90600090a250565b803b6103d35760405162461bcd60e51b815260206004820152603660248201527f5570677261646561626c6550726f78793a206e657720696d706c656d656e746160448201527f74696f6e206973206e6f74206120636f6e747261637400000000000000000000606482015260840161022f565b7f360894a13ba1a3210667c828492db98dca3e2076cc3735a920a3ca505d382bbc55565b60006020828403121561040957600080fd5b81356001600160a01b038116811461042057600080fd5b939250505056fea26469706673582212207e85ce2b2be78564cbfa3dec01c9f7b7ccaaae09f7a31aef6728089617efe9fa64736f6c63430008110033b53127684a568b3173ae13b9f8a6016e243e63b6e8ee1178d6a717850b5d6103360894a13ba1a3210667c828492db98dca3e2076cc3735a920a3ca505d382bbc",
  "linkReferences": {},
  "deployedLinkReferences": {}
}