{
  "_format": "hh-sol-artifact-1",
  "contractName": "TransparentUpgradeableProxy",
  "sourceName": "contracts/Proxy.sol",
  "abi": [
    {
      "inputs": [
        {
          "internalType": "address",
          "name": "_logic",
          "type": "address"
        },
        {
          "internalType": "address",
          "name": "admin_",
          "type": "address"
        },
        {
          "internalType": "bytes",
          "name": "_data",
          "type": "bytes"
        }
      ],
      "stateMutability": "payable",
      "type": "constructor"
    },
    {
      "anonymous": false,
      "inputs": [
        {
          "indexed": false,
          "internalType": "address",
          "name": "previousAdmin",
          "type": "address"
        },
        {
          "indexed": false,
          "internalType": "address",
          "name": "newAdmin",
          "type": "address"
        }
      ],
      "name": "AdminChanged",
      "type": "event"
    },
    {
      "anonymous": false,
      "inputs": [
        {
          "indexed": true,
          "internalType": "address",
          "name": "implementation",
          "type": "address"
        }
      ],
      "name": "Upgraded",
      "type": "event"
    },
    {
      "stateMutability": "payable",
      "type": "fallback"
    },
    {
      "inputs": [],
      "name": "admin",
      "outputs": [
        {
          "internalType": "address",
          "name": "admin_",
          "type": "address"
        }
      ],
      "stateMutability": "view",
      "type": "function"
    },
    {
      "inputs": [
        {
          "internalType": "address",
          "name": "newAdmin",
          "type": "address"
        }
      ],
      "name": "changeAdmin",
      "outputs": [],
      "stateMutability": "nonpayable",
      "type": "function"
    },
    {
      "inputs": [],
      "name": "implementation",
      "outputs": [
        {
          "internalType": "address",
          "name": "implementation_",
          "type": "address"
        }
      ],
      "stateMutability": "view",
      "type": "function"
    },
    {
      "inputs": [
        {
          "internalType": "address",
          "name": "newImplementation",
          "type": "address"
        }
      ],
      "name": "upgradeTo",
      "outputs": [],
      "stateMutability": "nonpayable",
      "type": "function"
    },
    {
      "stateMutability": "payable",
      "type": "receive"
    }
  ],
  "bytecode": "0x608060405260405161081938038061081983398101604081905261002291610244565b828161004f60017f360894a13ba1a3210667c828492db98dca3e2076cc3735a920a3ca505d382bbd610314565b6000805160206107f98339815191521461006b5761006b61033b565b6100748261014d565b8051156100e5576000826001600160a01b0316826040516100959190610351565b600060405180830381855af49150503d80600081146100d0576040519150601f19603f3d011682016040523d82523d6000602084013e6100d5565b606091505b50509050806100e357600080fd5b505b50610113905060017fb53127684a568b3173ae13b9f8a6016e243e63b6e8ee1178d6a717850b5d6104610314565b6000805160206107d98339815191521461012f5761012f61033b565b610145826000805160206107d983398151915255565b50505061036d565b610160816101e860201b6102f51760201c565b6101d65760405162461bcd60e51b815260206004820152603660248201527f5570677261646561626c6550726f78793a206e657720696d706c656d656e746160448201527f74696f6e206973206e6f74206120636f6e747261637400000000000000000000606482015260840160405180910390fd5b6000805160206107f983398151915255565b3b151590565b80516001600160a01b038116811461020557600080fd5b919050565b634e487b7160e01b600052604160045260246000fd5b60005b8381101561023b578181015183820152602001610223565b50506000910152565b60008060006060848603121561025957600080fd5b610262846101ee565b9250610270602085016101ee565b60408501519092506001600160401b038082111561028d57600080fd5b818601915086601f8301126102a157600080fd5b8151818111156102b3576102b361020a565b604051601f8201601f19908116603f011681019083821181831017156102db576102db61020a565b816040528281528960208487010111156102f457600080fd5b610305836020830160208801610220565b80955050505050509250925092565b8181038181111561033557634e487b7160e01b600052601160045260246000fd5b92915050565b634e487b7160e01b600052600160045260246000fd5b60008251610363818460208701610220565b9190910192915050565b61045d8061037c6000396000f3fe6080604052600436106100435760003560e01c80633659cfe61461005a5780635c60da1b1461007a5780638f283970146100ab578063f851a440146100cb57610052565b36610052576100506100e0565b005b6100506100e0565b34801561006657600080fd5b506100506100753660046103f7565b610112565b34801561008657600080fd5b5061008f610157565b6040516001600160a01b03909116815260200160405180910390f35b3480156100b757600080fd5b506100506100c63660046103f7565b610186565b3480156100d757600080fd5b5061008f6102cb565b61011061010b7f360894a13ba1a3210667c828492db98dca3e2076cc3735a920a3ca505d382bbc5490565b6102fb565b565b7fb53127684a568b3173ae13b9f8a6016e243e63b6e8ee1178d6a717850b5d6103546001600160a01b0316330361014f5761014c8161031f565b50565b61014c6100e0565b60006101817f360894a13ba1a3210667c828492db98dca3e2076cc3735a920a3ca505d382bbc5490565b905090565b7fb53127684a568b3173ae13b9f8a6016e243e63b6e8ee1178d6a717850b5d6103546001600160a01b0316330361014f576001600160a01b0381166102385760405162461bcd60e51b815260206004820152603a60248201527f5472616e73706172656e745570677261646561626c6550726f78793a206e657760448201527f2061646d696e20697320746865207a65726f206164647265737300000000000060648201526084015b60405180910390fd5b7f7e644d79422f17c01e4894b5f4f588d331ebfa28653d42ae832dc59e38c9798f6102817fb53127684a568b3173ae13b9f8a6016e243e63b6e8ee1178d6a717850b5d61035490565b604080516001600160a01b03928316815291841660208301520160405180910390a161014c817fb53127684a568b3173ae13b9f8a6016e243e63b6e8ee1178d6a717850b5d610355565b60006101817fb53127684a568b3173ae13b9f8a6016e243e63b6e8ee1178d6a717850b5d61035490565b3b151590565b3660008037600080366000845af43d6000803e80801561031a573d6000f35b3d6000fd5b6103288161035f565b6040516001600160a01b038216907fbc7cd75a20ee27fd9adebab32041f755214dbc6bffa90cc0225b39da2e5c2d3b90600090a250565b803b6103d35760405162461bcd60e51b815260206004820152603660248201527f5570677261646561626c6550726f78793a206e657720696d706c656d656e746160448201527f74696f6e206973206e6f74206120636f6e747261637400000000000000000000606482015260840161022f565b7f360894a13ba1a3210667c828492db98dca3e2076cc3735a920a3ca505d382bbc55565b60006020828403121561040957600080fd5b81356001600160a01b038116811461042057600080fd5b939250505056fea2646970667358221220031bd38a2595497a1b8e3864f054145669229b213befac862955aabfe6c63a4c64736f6c63430008110033b53127684a568b3173ae13b9f8a6016e243e63b6e8ee1178d6a717850b5d6103360894a13ba1a3210667c828492db98dca3e2076cc3735a920a3ca505d382bbc",
  "linkReferences": {},
  "deployedLinkReferences": {}
}