{
  "_format": "hh-sol-artifact-1",
  "contractName": "NFTMulticlassLinearAuction",
  "sourceName": "contracts/NFTMulticlassLinearAuction.sol",
  "abi": [
    {
      "inputs": [],
      "stateMutability": "nonpayable",
      "type": "constructor"
    },
    {
      "anonymous": false,
      "inputs": [
        {
          "indexed": true,
          "internalType": "uint256",
          "name": "tokenClassAuctionID",
          "type": "uint256"
        },
        {
          "indexed": false,
          "internalType": "uint256",
          "name": "timestamp",
          "type": "uint256"
        }
      ],
      "name": "AuctionCreated",
      "type": "event"
    },
    {
      "anonymous": false,
      "inputs": [
        {
          "indexed": true,
          "internalType": "address",
          "name": "newNFTContract",
          "type": "address"
        },
        {
          "indexed": true,
          "internalType": "address",
          "name": "oldNFTContract",
          "type": "address"
        }
      ],
      "name": "NFTContractSet",
      "type": "event"
    },
    {
      "anonymous": false,
      "inputs": [
        {
          "indexed": true,
          "internalType": "address",
          "name": "previousOwner",
          "type": "address"
        },
        {
          "indexed": true,
          "internalType": "address",
          "name": "newOwner",
          "type": "address"
        }
      ],
      "name": "OwnershipTransferred",
      "type": "event"
    },
    {
      "anonymous": false,
      "inputs": [
        {
          "indexed": false,
          "internalType": "uint256",
          "name": "amount",
          "type": "uint256"
        }
      ],
      "name": "RevenueWithdrawal",
      "type": "event"
    },
    {
      "anonymous": false,
      "inputs": [
        {
          "indexed": true,
          "internalType": "uint256",
          "name": "tokenID",
          "type": "uint256"
        },
        {
          "indexed": true,
          "internalType": "uint256",
          "name": "tokenClassID",
          "type": "uint256"
        },
        {
          "indexed": true,
          "internalType": "address",
          "name": "buyer",
          "type": "address"
        }
      ],
      "name": "TokenSold",
      "type": "event"
    },
    {
      "inputs": [],
      "name": "active",
      "outputs": [
        {
          "internalType": "bool",
          "name": "",
          "type": "bool"
        }
      ],
      "stateMutability": "view",
      "type": "function"
    },
    {
      "inputs": [
        {
          "internalType": "uint256",
          "name": "",
          "type": "uint256"
        }
      ],
      "name": "auctions",
      "outputs": [
        {
          "internalType": "uint256",
          "name": "max_supply",
          "type": "uint256"
        },
        {
          "internalType": "uint256",
          "name": "amount_sold",
          "type": "uint256"
        },
        {
          "internalType": "uint256",
          "name": "start_timestamp",
          "type": "uint256"
        },
        {
          "internalType": "uint256",
          "name": "duration",
          "type": "uint256"
        },
        {
          "internalType": "uint256",
          "name": "priceInWei",
          "type": "uint256"
        }
      ],
      "stateMutability": "view",
      "type": "function"
    },
    {
      "inputs": [
        {
          "internalType": "uint256",
          "name": "_classID",
          "type": "uint256"
        }
      ],
      "name": "buyNFT",
      "outputs": [],
      "stateMutability": "payable",
      "type": "function"
    },
    {
      "inputs": [
        {
          "internalType": "uint256",
          "name": "_classID",
          "type": "uint256"
        },
        {
          "internalType": "uint256",
          "name": "_max_supply",
          "type": "uint256"
        },
        {
          "internalType": "uint256",
          "name": "_start_timestamp",
          "type": "uint256"
        },
        {
          "internalType": "uint256",
          "name": "_duration",
          "type": "uint256"
        },
        {
          "internalType": "uint256",
          "name": "_priceInWEI",
          "type": "uint256"
        },
        {
          "internalType": "uint256",
          "name": "_already_sold",
          "type": "uint256"
        }
      ],
      "name": "createNFTAuction",
      "outputs": [],
      "stateMutability": "nonpayable",
      "type": "function"
    },
    {
      "inputs": [],
      "name": "nft_contract",
      "outputs": [
        {
          "internalType": "address",
          "name": "",
          "type": "address"
        }
      ],
      "stateMutability": "view",
      "type": "function"
    },
    {
      "inputs": [],
      "name": "owner",
      "outputs": [
        {
          "internalType": "address",
          "name": "",
          "type": "address"
        }
      ],
      "stateMutability": "view",
      "type": "function"
    },
    {
      "inputs": [],
      "name": "revenue",
      "outputs": [
        {
          "internalType": "address payable",
          "name": "",
          "type": "address"
        }
      ],
      "stateMutability": "view",
      "type": "function"
    },
    {
      "inputs": [
        {
          "internalType": "bool",
          "name": "_active",
          "type": "bool"
        }
      ],
      "name": "setActive",
      "outputs": [],
      "stateMutability": "nonpayable",
      "type": "function"
    },
    {
      "inputs": [
        {
          "internalType": "address",
          "name": "_nftContract",
          "type": "address"
        }
      ],
      "name": "setNFTContract",
      "outputs": [],
      "stateMutability": "nonpayable",
      "type": "function"
    },
    {
      "inputs": [
        {
          "internalType": "address payable",
          "name": "_revenue_address",
          "type": "address"
        }
      ],
      "name": "setRevenueAddress",
      "outputs": [],
      "stateMutability": "nonpayable",
      "type": "function"
    },
    {
      "inputs": [
        {
          "internalType": "address",
          "name": "newOwner",
          "type": "address"
        }
      ],
      "name": "transferOwnership",
      "outputs": [],
      "stateMutability": "nonpayable",
      "type": "function"
    },
    {
      "inputs": [],
      "name": "withdrawRevenue",
      "outputs": [],
      "stateMutability": "nonpayable",
      "type": "function"
    }
  ],
  "bytecode": "0x60806040526000805460ff60a01b1916600160a01b179055600380546001600160a01b0319167301000b5fe61411c466b70631d7ff070187179bbf17905534801561004957600080fd5b50600080546001600160a01b031916331790556110388061006b6000396000f3fe6080604052600436106100c75760003560e01c8063571a26a011610074578063acec338a1161004e578063acec338a14610254578063f2fde38b14610274578063fcdcdeee1461029457600080fd5b8063571a26a0146101a45780638da5cb5b14610216578063a7ccabdf1461023457600080fd5b80634e055c47116100a55780634e055c471461015c5780634f573cb21461017c57806351ed82881461019157600080fd5b806302fb0c5e146100cc5780633e9491a21461010257806345338d631461013a575b600080fd5b3480156100d857600080fd5b506000546100ed90600160a01b900460ff1681565b60405190151581526020015b60405180910390f35b34801561010e57600080fd5b50600354610122906001600160a01b031681565b6040516001600160a01b0390911681526020016100f9565b34801561014657600080fd5b5061015a610155366004610e06565b6102b4565b005b34801561016857600080fd5b5061015a610177366004610e2a565b610342565b34801561018857600080fd5b5061015a61040d565b61015a61019f366004610e6d565b610556565b3480156101b057600080fd5b506101ee6101bf366004610e6d565b600260208190526000918252604090912080546001820154928201546003830154600490930154919392909185565b604080519586526020860194909452928401919091526060830152608082015260a0016100f9565b34801561022257600080fd5b506000546001600160a01b0316610122565b34801561024057600080fd5b5061015a61024f366004610e06565b61099f565b34801561026057600080fd5b5061015a61026f366004610e94565b610a63565b34801561028057600080fd5b5061015a61028f366004610e06565b610af6565b3480156102a057600080fd5b50600154610122906001600160a01b031681565b6000546001600160a01b031633146103135760405162461bcd60e51b815260206004820181905260248201527f4f776e61626c653a2063616c6c6572206973206e6f7420746865206f776e657260448201526064015b60405180910390fd5b6003805473ffffffffffffffffffffffffffffffffffffffff19166001600160a01b0392909216919091179055565b6000546001600160a01b0316331461039c5760405162461bcd60e51b815260206004820181905260248201527f4f776e61626c653a2063616c6c6572206973206e6f7420746865206f776e6572604482015260640161030a565b60008681526002602081905260409182902087815560018101849055908101869055600381018590556004018390555186907fe00a2da3a0f34a566402a244ab7ec63f8ab7472591cb18edf3269aa00461a410906103fd9042815260200190565b60405180910390a2505050505050565b6000546001600160a01b031633146104675760405162461bcd60e51b815260206004820181905260248201527f4f776e61626c653a2063616c6c6572206973206e6f7420746865206f776e6572604482015260640161030a565b6003546001600160a01b031633146104e75760405162461bcd60e51b815260206004820152602760248201527f5468697320616374696f6e20726571756972657320726576656e75652070657260448201527f6d697373696f6e00000000000000000000000000000000000000000000000000606482015260840161030a565b6040514781527f3449177c5be4aca5ea828acefea3213c1a52e1ad402fd9571d234a265e6d63119060200160405180910390a16003546040516001600160a01b03909116904780156108fc02916000818181858888f19350505050158015610553573d6000803e3d6000fd5b50565b600054600160a01b900460ff166105d55760405162461bcd60e51b815260206004820152602560248201527f5468697320636f6e74726163742069732064656163746976617465642062792060448201527f6f776e6572000000000000000000000000000000000000000000000000000000606482015260840161030a565b6000818152600260205260409020600401543410156106365760405162461bcd60e51b815260206004820152601260248201527f496e73756666696369656e742066756e64730000000000000000000000000000604482015260640161030a565b60008181526002602052604090208054600190910154106106bf5760405162461bcd60e51b815260206004820152603060248201527f546869732061756374696f6e2068617320616c726561647920736f6c6420616c60448201527f6c20616c6c6f6361746564204e46547300000000000000000000000000000000606482015260840161030a565b600081815260026020819052604090912060038101549101546106e29190610ec7565b42106107305760405162461bcd60e51b815260206004820152601c60248201527f546869732061756374696f6e20616c7265616479206578706972656400000000604482015260640161030a565b6000818152600260208190526040909120015442116107915760405162461bcd60e51b815260206004820152601f60248201527f546869732061756374696f6e206973206e6f7420796574207374617274656400604482015260640161030a565b60008181526002602052604081206004015490036108175760405162461bcd60e51b815260206004820152602860248201527f4d696e207072696365206973206e6f7420636f6e66696775726564206279207460448201527f6865206f776e6572000000000000000000000000000000000000000000000000606482015260840161030a565b6001546040517f3c65b3eb000000000000000000000000000000000000000000000000000000008152600481018390526000916001600160a01b031690633c65b3eb906024016020604051808303816000875af115801561087c573d6000803e3d6000fd5b505050506040513d601f19601f820116820180604052508101906108a09190610ee0565b60008381526002602052604081206001018054929350906108c083610ef9565b91905055506108cf8183610bd5565b6001546040517fbe45fd620000000000000000000000000000000000000000000000000000000081523360048201526024810183905260606044820152600060648201526001600160a01b039091169063be45fd62906084016020604051808303816000875af1158015610947573d6000803e3d6000fd5b505050506040513d601f19601f8201168201806040525081019061096b9190610f12565b506040513390839083907fef62d3126cf8b9c1a038e75c1f0013c4aa36214a45c017a42a06df904e76fff990600090a45050565b6000546001600160a01b031633146109f95760405162461bcd60e51b815260206004820181905260248201527f4f776e61626c653a2063616c6c6572206973206e6f7420746865206f776e6572604482015260640161030a565b6001546040516001600160a01b03918216918316907f048be79eb9eed95d1a5143dcb6b4b7a5ac915c1decaebd1bd13f267a3cc2dbba90600090a36001805473ffffffffffffffffffffffffffffffffffffffff19166001600160a01b0392909216919091179055565b6000546001600160a01b03163314610abd5760405162461bcd60e51b815260206004820181905260248201527f4f776e61626c653a2063616c6c6572206973206e6f7420746865206f776e6572604482015260640161030a565b60008054911515600160a01b027fffffffffffffffffffffff00ffffffffffffffffffffffffffffffffffffffff909216919091179055565b6000546001600160a01b03163314610b505760405162461bcd60e51b815260206004820181905260248201527f4f776e61626c653a2063616c6c6572206973206e6f7420746865206f776e6572604482015260640161030a565b6001600160a01b038116610bcc5760405162461bcd60e51b815260206004820152602660248201527f4f776e61626c653a206e6577206f776e657220697320746865207a65726f206160448201527f6464726573730000000000000000000000000000000000000000000000000000606482015260840161030a565b61055381610c57565b600081815260026020526040902060019081015490546001600160a01b031663290e008c84610c0384610cb4565b6040518363ffffffff1660e01b8152600401610c20929190610f2f565b600060405180830381600087803b158015610c3a57600080fd5b505af1158015610c4e573d6000803e3d6000fd5b50505050505050565b600080546001600160a01b0383811673ffffffffffffffffffffffffffffffffffffffff19831681178455604051919092169283917f8be0079c531659141344cd1fd0a4f28419497f9722a3daafe3b4186f6b6457e09190a35050565b606081600003610cf757505060408051808201909152600181527f3000000000000000000000000000000000000000000000000000000000000000602082015290565b8160005b8115610d215780610d0b81610ef9565b9150610d1a9050600a83610f9b565b9150610cfb565b60008167ffffffffffffffff811115610d3c57610d3c610faf565b6040519080825280601f01601f191660200182016040528015610d66576020820181803683370190505b5090505b8415610de957610d7b600183610fc5565b9150610d88600a86610fd8565b610d93906030610ec7565b60f81b818381518110610da857610da8610fec565b60200101907effffffffffffffffffffffffffffffffffffffffffffffffffffffffffffff1916908160001a905350610de2600a86610f9b565b9450610d6a565b949350505050565b6001600160a01b038116811461055357600080fd5b600060208284031215610e1857600080fd5b8135610e2381610df1565b9392505050565b60008060008060008060c08789031215610e4357600080fd5b505084359660208601359650604086013595606081013595506080810135945060a0013592509050565b600060208284031215610e7f57600080fd5b5035919050565b801515811461055357600080fd5b600060208284031215610ea657600080fd5b8135610e2381610e86565b634e487b7160e01b600052601160045260246000fd5b80820180821115610eda57610eda610eb1565b92915050565b600060208284031215610ef257600080fd5b5051919050565b600060018201610f0b57610f0b610eb1565b5060010190565b600060208284031215610f2457600080fd5b8151610e2381610e86565b82815260006020604081840152835180604085015260005b81811015610f6357858101830151858201606001528201610f47565b506000606082860101526060601f19601f830116850101925050509392505050565b634e487b7160e01b600052601260045260246000fd5b600082610faa57610faa610f85565b500490565b634e487b7160e01b600052604160045260246000fd5b81810381811115610eda57610eda610eb1565b600082610fe757610fe7610f85565b500690565b634e487b7160e01b600052603260045260246000fdfea26469706673582212204673233a82f396161403bd2fe2bc3ee3a2933f107b380f04f35bdfffebd053c764736f6c63430008110033",
  "linkReferences": {},
  "deployedLinkReferences": {}
}