{
  "_format": "hh-sol-artifact-1",
  "contractName": "ActivatedByOwner",
  "sourceName": "contracts/NFTMulticlassBiddableAuction.sol",
  "abi": [
    {
      "anonymous": false,
      "inputs": [
        {
          "indexed": true,
          "internalType": "address",
          "name": "previousOwner",
          "type": "address"
        },
        {
          "indexed": true,
          "internalType": "address",
          "name": "newOwner",
          "type": "address"
        }
      ],
      "name": "OwnershipTransferred",
      "type": "event"
    },
    {
      "inputs": [],
      "name": "active",
      "outputs": [
        {
          "internalType": "bool",
          "name": "",
          "type": "bool"
        }
      ],
      "stateMutability": "view",
      "type": "function"
    },
    {
      "inputs": [],
      "name": "owner",
      "outputs": [
        {
          "internalType": "address",
          "name": "",
          "type": "address"
        }
      ],
      "stateMutability": "view",
      "type": "function"
    },
    {
      "inputs": [
        {
          "internalType": "bool",
          "name": "_active",
          "type": "bool"
        }
      ],
      "name": "setActive",
      "outputs": [],
      "stateMutability": "nonpayable",
      "type": "function"
    },
    {
      "inputs": [
        {
          "internalType": "address",
          "name": "newOwner",
          "type": "address"
        }
      ],
      "name": "transferOwnership",
      "outputs": [],
      "stateMutability": "nonpayable",
      "type": "function"
    }
  ],
  "bytecode": "0x60806040526000805460ff60a01b1916600160a01b17905534801561002357600080fd5b50610327806100336000396000f3fe608060405234801561001057600080fd5b506004361061004c5760003560e01c806302fb0c5e146100515780638da5cb5b1461007a578063acec338a14610095578063f2fde38b146100aa575b600080fd5b60005461006590600160a01b900460ff1681565b60405190151581526020015b60405180910390f35b6000546040516001600160a01b039091168152602001610071565b6100a86100a336600461029f565b6100bd565b005b6100a86100b83660046102c8565b610155565b6000546001600160a01b0316331461011c5760405162461bcd60e51b815260206004820181905260248201527f4f776e61626c653a2063616c6c6572206973206e6f7420746865206f776e657260448201526064015b60405180910390fd5b60008054911515600160a01b027fffffffffffffffffffffff00ffffffffffffffffffffffffffffffffffffffff909216919091179055565b6000546001600160a01b031633146101af5760405162461bcd60e51b815260206004820181905260248201527f4f776e61626c653a2063616c6c6572206973206e6f7420746865206f776e65726044820152606401610113565b6001600160a01b03811661022b5760405162461bcd60e51b815260206004820152602660248201527f4f776e61626c653a206e6577206f776e657220697320746865207a65726f206160448201527f64647265737300000000000000000000000000000000000000000000000000006064820152608401610113565b61023481610237565b50565b600080546001600160a01b038381167fffffffffffffffffffffffff0000000000000000000000000000000000000000831681178455604051919092169283917f8be0079c531659141344cd1fd0a4f28419497f9722a3daafe3b4186f6b6457e09190a35050565b6000602082840312156102b157600080fd5b813580151581146102c157600080fd5b9392505050565b6000602082840312156102da57600080fd5b81356001600160a01b03811681146102c157600080fdfea2646970667358221220df617953c4b6d7a4ac7878f639d81354947659c94e82f4374fcc2fadd7fb474564736f6c63430008110033",
  "linkReferences": {},
  "deployedLinkReferences": {}
}