{
  "_format": "hh-sol-artifact-1",
  "contractName": "NFTMulticlassBiddableAuction",
  "sourceName": "contracts/NFTMulticlassBiddableAuction.sol",
  "abi": [
    {
      "inputs": [],
      "stateMutability": "nonpayable",
      "type": "constructor"
    },
    {
      "anonymous": false,
      "inputs": [
        {
          "indexed": true,
          "internalType": "uint256",
          "name": "tokenClassAuctionID",
          "type": "uint256"
        },
        {
          "indexed": false,
          "internalType": "uint256",
          "name": "timestamp",
          "type": "uint256"
        }
      ],
      "name": "AuctionCreated",
      "type": "event"
    },
    {
      "anonymous": false,
      "inputs": [
        {
          "indexed": true,
          "internalType": "address",
          "name": "newNFTContract",
          "type": "address"
        },
        {
          "indexed": true,
          "internalType": "address",
          "name": "oldNFTContract",
          "type": "address"
        }
      ],
      "name": "NFTContractSet",
      "type": "event"
    },
    {
      "anonymous": false,
      "inputs": [
        {
          "indexed": true,
          "internalType": "uint256",
          "name": "tokenClassAuctionID",
          "type": "uint256"
        },
        {
          "indexed": true,
          "internalType": "uint256",
          "name": "startTimestamp",
          "type": "uint256"
        },
        {
          "indexed": true,
          "internalType": "uint256",
          "name": "endTimestamp",
          "type": "uint256"
        }
      ],
      "name": "NewRound",
      "type": "event"
    },
    {
      "anonymous": false,
      "inputs": [
        {
          "indexed": true,
          "internalType": "address",
          "name": "previousOwner",
          "type": "address"
        },
        {
          "indexed": true,
          "internalType": "address",
          "name": "newOwner",
          "type": "address"
        }
      ],
      "name": "OwnershipTransferred",
      "type": "event"
    },
    {
      "anonymous": false,
      "inputs": [
        {
          "indexed": false,
          "internalType": "uint256",
          "name": "amount",
          "type": "uint256"
        }
      ],
      "name": "RevenueWithdrawal",
      "type": "event"
    },
    {
      "anonymous": false,
      "inputs": [
        {
          "indexed": true,
          "internalType": "uint256",
          "name": "tokenClassAuctionID",
          "type": "uint256"
        },
        {
          "indexed": true,
          "internalType": "address",
          "name": "winner",
          "type": "address"
        },
        {
          "indexed": true,
          "internalType": "uint256",
          "name": "acquiredTokenID",
          "type": "uint256"
        }
      ],
      "name": "RoundEnd",
      "type": "event"
    },
    {
      "inputs": [],
      "name": "active",
      "outputs": [
        {
          "internalType": "bool",
          "name": "",
          "type": "bool"
        }
      ],
      "stateMutability": "view",
      "type": "function"
    },
    {
      "inputs": [
        {
          "internalType": "uint256",
          "name": "",
          "type": "uint256"
        }
      ],
      "name": "auctions",
      "outputs": [
        {
          "internalType": "uint256",
          "name": "max_supply",
          "type": "uint256"
        },
        {
          "internalType": "uint256",
          "name": "amount_sold",
          "type": "uint256"
        },
        {
          "internalType": "uint256",
          "name": "start_timestamp",
          "type": "uint256"
        },
        {
          "internalType": "uint256",
          "name": "duration",
          "type": "uint256"
        },
        {
          "internalType": "uint256",
          "name": "min_priceInWei",
          "type": "uint256"
        },
        {
          "internalType": "uint256",
          "name": "highest_bid",
          "type": "uint256"
        },
        {
          "internalType": "address",
          "name": "winner",
          "type": "address"
        }
      ],
      "stateMutability": "view",
      "type": "function"
    },
    {
      "inputs": [
        {
          "internalType": "uint256",
          "name": "_classID",
          "type": "uint256"
        }
      ],
      "name": "bidOnNFT",
      "outputs": [],
      "stateMutability": "payable",
      "type": "function"
    },
    {
      "inputs": [
        {
          "internalType": "uint256",
          "name": "",
          "type": "uint256"
        }
      ],
      "name": "bids",
      "outputs": [
        {
          "internalType": "uint256",
          "name": "classID",
          "type": "uint256"
        },
        {
          "internalType": "address",
          "name": "owner",
          "type": "address"
        },
        {
          "internalType": "uint256",
          "name": "bid_amount",
          "type": "uint256"
        },
        {
          "internalType": "uint256",
          "name": "bid_timestamp",
          "type": "uint256"
        }
      ],
      "stateMutability": "view",
      "type": "function"
    },
    {
      "inputs": [
        {
          "internalType": "uint256",
          "name": "_classID",
          "type": "uint256"
        },
        {
          "internalType": "uint256",
          "name": "_max_supply",
          "type": "uint256"
        },
        {
          "internalType": "uint256",
          "name": "_start_timestamp",
          "type": "uint256"
        },
        {
          "internalType": "uint256",
          "name": "_duration",
          "type": "uint256"
        },
        {
          "internalType": "uint256",
          "name": "_minPriceInWEI",
          "type": "uint256"
        },
        {
          "internalType": "uint256",
          "name": "_already_sold",
          "type": "uint256"
        }
      ],
      "name": "createNFTAuction",
      "outputs": [],
      "stateMutability": "nonpayable",
      "type": "function"
    },
    {
      "inputs": [
        {
          "internalType": "uint256",
          "name": "_classID",
          "type": "uint256"
        }
      ],
      "name": "endRound",
      "outputs": [],
      "stateMutability": "nonpayable",
      "type": "function"
    },
    {
      "inputs": [],
      "name": "nextBidIndex",
      "outputs": [
        {
          "internalType": "uint256",
          "name": "",
          "type": "uint256"
        }
      ],
      "stateMutability": "view",
      "type": "function"
    },
    {
      "inputs": [],
      "name": "nft_contract",
      "outputs": [
        {
          "internalType": "address",
          "name": "",
          "type": "address"
        }
      ],
      "stateMutability": "view",
      "type": "function"
    },
    {
      "inputs": [],
      "name": "owner",
      "outputs": [
        {
          "internalType": "address",
          "name": "",
          "type": "address"
        }
      ],
      "stateMutability": "view",
      "type": "function"
    },
    {
      "inputs": [],
      "name": "revenue",
      "outputs": [
        {
          "internalType": "address payable",
          "name": "",
          "type": "address"
        }
      ],
      "stateMutability": "view",
      "type": "function"
    },
    {
      "inputs": [],
      "name": "revenue_amount",
      "outputs": [
        {
          "internalType": "uint256",
          "name": "",
          "type": "uint256"
        }
      ],
      "stateMutability": "view",
      "type": "function"
    },
    {
      "inputs": [
        {
          "internalType": "bool",
          "name": "_active",
          "type": "bool"
        }
      ],
      "name": "setActive",
      "outputs": [],
      "stateMutability": "nonpayable",
      "type": "function"
    },
    {
      "inputs": [
        {
          "internalType": "address",
          "name": "_nftContract",
          "type": "address"
        }
      ],
      "name": "setNFTContract",
      "outputs": [],
      "stateMutability": "nonpayable",
      "type": "function"
    },
    {
      "inputs": [
        {
          "internalType": "address payable",
          "name": "_revenue_address",
          "type": "address"
        }
      ],
      "name": "setRevenueAddress",
      "outputs": [],
      "stateMutability": "nonpayable",
      "type": "function"
    },
    {
      "inputs": [
        {
          "internalType": "address",
          "name": "newOwner",
          "type": "address"
        }
      ],
      "name": "transferOwnership",
      "outputs": [],
      "stateMutability": "nonpayable",
      "type": "function"
    },
    {
      "inputs": [],
      "name": "withdrawRevenue",
      "outputs": [],
      "stateMutability": "nonpayable",
      "type": "function"
    }
  ],
  "bytecode": "0x60806040526000805460ff60a01b1916600160a01b178155600455600780546001600160a01b0319167301000b5fe61411c466b70631d7ff070187179bbf17905534801561004c57600080fd5b5060018055600080546001600160a01b03191633179055611563806100726000396000f3fe6080604052600436106100f35760003560e01c8063571a26a01161008a578063a7ccabdf11610059578063a7ccabdf1461035d578063acec338a1461037d578063f2fde38b1461039d578063fcdcdeee146103bd57600080fd5b8063571a26a0146102695780635a1e6ca1146103095780638da5cb5b14610329578063982f45e21461034757600080fd5b80634423c5f1116100c65780634423c5f11461019f57806345338d63146102145780634e055c47146102345780634f573cb21461025457600080fd5b806302fb0c5e146100f857806322efda771461012e57806327bf3410146101525780633e9491a214610167575b600080fd5b34801561010457600080fd5b5060005461011990600160a01b900460ff1681565b60405190151581526020015b60405180910390f35b34801561013a57600080fd5b5061014460045481565b604051908152602001610125565b61016561016036600461131c565b6103dd565b005b34801561017357600080fd5b50600754610187906001600160a01b031681565b6040516001600160a01b039091168152602001610125565b3480156101ab57600080fd5b506101ec6101ba36600461131c565b6003602081905260009182526040909120805460018201546002830154929093015490926001600160a01b0316919084565b604080519485526001600160a01b039093166020850152918301526060820152608001610125565b34801561022057600080fd5b5061016561022f36600461134a565b610846565b34801561024057600080fd5b5061016561024f36600461136e565b6108c2565b34801561026057600080fd5b506101656109ab565b34801561027557600080fd5b506102cb61028436600461131c565b60056020819052600091825260409091208054600182015460028301546003840154600485015495850154600690950154939592949193909291906001600160a01b031687565b604080519788526020880196909652948601939093526060850191909152608084015260a08301526001600160a01b031660c082015260e001610125565b34801561031557600080fd5b5061016561032436600461131c565b610af9565b34801561033557600080fd5b506000546001600160a01b0316610187565b34801561035357600080fd5b5061014460065481565b34801561036957600080fd5b5061016561037836600461134a565b610e3f565b34801561038957600080fd5b506101656103983660046113bf565b610ef5565b3480156103a957600080fd5b506101656103b836600461134a565b610f88565b3480156103c957600080fd5b50600254610187906001600160a01b031681565b600054600160a01b900460ff166104615760405162461bcd60e51b815260206004820152602560248201527f5468697320636f6e74726163742069732064656163746976617465642062792060448201527f6f776e657200000000000000000000000000000000000000000000000000000060648201526084015b60405180910390fd5b6000818152600560205260408120600401543491908210156104c55760405162461bcd60e51b815260206004820152601d60248201527f4d696e207072696365206372697465726961206973206e6f74206d65740000006044820152606401610458565b60008381526005602052604090206002015442116105255760405162461bcd60e51b815260206004820152601960248201527f41756374696f6e20646964206e6f7420737461727420796574000000000000006044820152606401610458565b600083815260056020526040902060038101546002909101544291610549916113f2565b10156105a75761055883610af9565b60008381526005602052604090206004015433906108fc9061057a908561140b565b6040518115909202916000818181858888f160008881526005602052604090206004015496509450505050505b6000838152600560205260409020600181015490541161061b5760405162461bcd60e51b815260206004820152602960248201527f416c6c204e465473206f66207468697320617274776f726b2061726520616c726044820152681958591e481cdbdb1960ba1b6064820152608401610458565b6000838152600560208190526040909120015461063a90601490611434565b6000848152600560208190526040909120015461065791906113f2565b821015801561068a57506000838152600560208190526040909120015461068690670de0b6b3a76400006113f2565b8210155b6106fb5760405162461bcd60e51b8152602060048201526024808201527f446f6573206e6f74206f75746269642063757272656e742077696e6e6572206260448201527f79203525000000000000000000000000000000000000000000000000000000006064820152608401610458565b60008381526005602052604081206004015490036107815760405162461bcd60e51b815260206004820152602860248201527f4d696e207072696365206973206e6f7420636f6e66696775726564206279207460448201527f6865206f776e65720000000000000000000000000000000000000000000000006064820152608401610458565b6000838152600560208190526040808320600681015492015490516001600160a01b039092169281156108fc029290818181858888f16000888152600560208181526040808420600681018054336001600160a01b03199182168117909255919094018c90556004805486526003938490528286208e90558054865282862060010180549092169094179055825484528084206002018b9055825484528320429101558054929750919550909350915061083c905083611448565b9190505550505050565b6000546001600160a01b031633146108a05760405162461bcd60e51b815260206004820181905260248201527f4f776e61626c653a2063616c6c6572206973206e6f7420746865206f776e65726044820152606401610458565b600780546001600160a01b0319166001600160a01b0392909216919091179055565b6000546001600160a01b0316331461091c5760405162461bcd60e51b815260206004820181905260248201527f4f776e61626c653a2063616c6c6572206973206e6f7420746865206f776e65726044820152606401610458565b6000868152600560209081526040808320888155600181018590556002810188905560038101879055600481018690559254600690930180546001600160a01b0319166001600160a01b03909416939093179092558151428152915188927fe00a2da3a0f34a566402a244ab7ec63f8ab7472591cb18edf3269aa00461a41092908290030190a2505050505050565b6000546001600160a01b03163314610a055760405162461bcd60e51b815260206004820181905260248201527f4f776e61626c653a2063616c6c6572206973206e6f7420746865206f776e65726044820152606401610458565b6007546001600160a01b03163314610a855760405162461bcd60e51b815260206004820152602760248201527f5468697320616374696f6e20726571756972657320726576656e75652070657260448201527f6d697373696f6e000000000000000000000000000000000000000000000000006064820152608401610458565b600680546000918290556007546040519192916001600160a01b039091169083156108fc0290849084818181858888f1935050505090507f3449177c5be4aca5ea828acefea3213c1a52e1ad402fd9571d234a265e6d631182604051610aed91815260200190565b60405180910390a15050565b600260015403610b4b5760405162461bcd60e51b815260206004820152601f60248201527f5265656e7472616e637947756172643a207265656e7472616e742063616c6c006044820152606401610458565b6002600181905560008281526005602052604090206003810154910154610b7291906113f2565b4211610bc05760405162461bcd60e51b815260206004820152601c60248201527f41756374696f6e206973207374696c6c20696e2070726f6772657373000000006044820152606401610458565b60008181526005602052604090206001810154905411610c345760405162461bcd60e51b815260206004820152602960248201527f416c6c204e465473206f66207468697320617274776f726b2061726520616c726044820152681958591e481cdbdb1960ba1b6064820152608401610458565b6000818152600560205260408120600101805491610c5183611448565b90915550506002546040517f3c65b3eb000000000000000000000000000000000000000000000000000000008152600481018390526000916001600160a01b031690633c65b3eb906024016020604051808303816000875af1158015610cbb573d6000803e3d6000fd5b505050506040513d601f19601f82011682018060405250810190610cdf9190611461565b9050610ceb818361106a565b6002546000838152600560205260408082206006015490517fbe45fd620000000000000000000000000000000000000000000000000000000081526001600160a01b039182166004820152602481018590526060604482015260648101929092529091169063be45fd62906084016020604051808303816000875af1158015610d78573d6000803e3d6000fd5b505050506040513d601f19601f82011682018060405250810190610d9c919061147a565b5060008281526005602052604080822060060154905183926001600160a01b039092169185917fa49385eb61e4f439063d5c00de2ab7a1fff06ca35f6f06fb634d21a2e8ad32799190a4600560008381526020019081526020016000206005015460066000828254610e0e91906113f2565b90915550506000828152600560205260409020805460019091015414610e3757610e37826110eb565b505060018055565b6000546001600160a01b03163314610e995760405162461bcd60e51b815260206004820181905260248201527f4f776e61626c653a2063616c6c6572206973206e6f7420746865206f776e65726044820152606401610458565b6002546040516001600160a01b038084169216907f048be79eb9eed95d1a5143dcb6b4b7a5ac915c1decaebd1bd13f267a3cc2dbba90600090a3600280546001600160a01b0319166001600160a01b0392909216919091179055565b6000546001600160a01b03163314610f4f5760405162461bcd60e51b815260206004820181905260248201527f4f776e61626c653a2063616c6c6572206973206e6f7420746865206f776e65726044820152606401610458565b60008054911515600160a01b027fffffffffffffffffffffff00ffffffffffffffffffffffffffffffffffffffff909216919091179055565b6000546001600160a01b03163314610fe25760405162461bcd60e51b815260206004820181905260248201527f4f776e61626c653a2063616c6c6572206973206e6f7420746865206f776e65726044820152606401610458565b6001600160a01b03811661105e5760405162461bcd60e51b815260206004820152602660248201527f4f776e61626c653a206e6577206f776e657220697320746865207a65726f206160448201527f64647265737300000000000000000000000000000000000000000000000000006064820152608401610458565b6110678161118f565b50565b6000818152600560205260409020600101546002546001600160a01b031663290e008c84611097846111df565b6040518363ffffffff1660e01b81526004016110b4929190611497565b600060405180830381600087803b1580156110ce57600080fd5b505af11580156110e2573d6000803e3d6000fd5b50505050505050565b6000805482825260056020819052604083206006810180546001600160a01b0319166001600160a01b0390941693909317909255015561112d426102586113f2565b6000828152600560205260409020600281018290556003015461114f916113f2565b600082815260056020526040808220600201549051909184917f5aec57d81928b24d30b1a2aec0d23d693412c37d7ec106b5d8259413716bb1f49190a450565b600080546001600160a01b038381166001600160a01b0319831681178455604051919092169283917f8be0079c531659141344cd1fd0a4f28419497f9722a3daafe3b4186f6b6457e09190a35050565b60608160000361122257505060408051808201909152600181527f3000000000000000000000000000000000000000000000000000000000000000602082015290565b8160005b811561124c578061123681611448565b91506112459050600a83611434565b9150611226565b60008167ffffffffffffffff811115611267576112676114ed565b6040519080825280601f01601f191660200182016040528015611291576020820181803683370190505b5090505b8415611314576112a660018361140b565b91506112b3600a86611503565b6112be9060306113f2565b60f81b8183815181106112d3576112d3611517565b60200101907effffffffffffffffffffffffffffffffffffffffffffffffffffffffffffff1916908160001a90535061130d600a86611434565b9450611295565b949350505050565b60006020828403121561132e57600080fd5b5035919050565b6001600160a01b038116811461106757600080fd5b60006020828403121561135c57600080fd5b813561136781611335565b9392505050565b60008060008060008060c0878903121561138757600080fd5b505084359660208601359650604086013595606081013595506080810135945060a0013592509050565b801515811461106757600080fd5b6000602082840312156113d157600080fd5b8135611367816113b1565b634e487b7160e01b600052601160045260246000fd5b80820180821115611405576114056113dc565b92915050565b81810381811115611405576114056113dc565b634e487b7160e01b600052601260045260246000fd5b6000826114435761144361141e565b500490565b60006001820161145a5761145a6113dc565b5060010190565b60006020828403121561147357600080fd5b5051919050565b60006020828403121561148c57600080fd5b8151611367816113b1565b82815260006020604081840152835180604085015260005b818110156114cb578581018301518582016060015282016114af565b506000606082860101526060601f19601f830116850101925050509392505050565b634e487b7160e01b600052604160045260246000fd5b6000826115125761151261141e565b500690565b634e487b7160e01b600052603260045260246000fdfea264697066735822122007b3b5621769c3a609284eca01604699b470954807f352972a345cc62bf2a70e64736f6c63430008110033",
  "linkReferences": {},
  "deployedLinkReferences": {}
}